:02000000B7291E
:10000600710DF80DF90D7408F8027508031C750FCB
:10001600F902F00DF10D0F30FC00710DF80DF90D20
:100026007408701C1C28F8027508031C750FF90269
:100036002128F80775080318750FF907F00DF10D5B
:10004600FC0B102870182D287408F807750803187B
:08005600750FF9070000080016
:0E005E008312031338088A0037088200080056
:10006C00831203137408003A031D45287508003ADF
:10007C00031D4528FF30F0007F30F1009E288312CD
:10008C000313FD01F901F801710870040319003420
:10009C0071087506FA00FA1BFD09FB01F51F5B28B8
:1000AC00F409F509F40A0319F50AF11F6228F0099D
:1000BC00F109F00A0319F10A71087504FA00FA1B28
:1000CC00772803207B188A28FD1F0034F009F109DA
:1000DC00F00A0319F10AF809F909F80A0319F90ADF
:1000EC000034F51F8628F11B82287108F90070086E
:1000FC00F800F101F0016A28F101F001F00A003476
:10010C00F109F009FB0A6728F80A0319F90A7408BF
:10011C007802031D6A2875087902031D6A28F90103
:10012C00F801F00A0319F10AF11F6A280000FF34E4
:02013C000800B9
:10013E002F208A110A128000840AB70A0319B80AFE
:08014E00F003031D9F280800C7
:100156008312031308162F0886000D30FC00FB30AF
:10016600FD00FD0BB428FC0BB428000000000812AB
:100176008816300886000D30FC00FB30FD00FD0BB4
:10018600C228FC0BC228000000008812081731089C
:1001960086000D30FC00FB30FD00FD0BD028FC0B6B
:1001A600D0280000000008138817320886000D309A
:1001B600FC00FB30FD00FD0BDE28FC0BDE280000FA
:0601C60000008813080090
:1001CC0083120313FB01FA01F9018030F800F10CE2
:1001DC00F00C031CFA287408F90775080318750F3E
:1001EC00FA070318FB0A0310F01F02297408FA0718
:1001FC0075080318750FFB07FB0CFA0CF90CF80CBF
:10020C00031CED287B08F3007A08F2007908F10052
:06021C007808F000080064
:100222000A3083120313F4000030F5003D08F00099
:100232003E08F10036207808F0007908F1007008D5
:10024200C3007108C4000A30F4000030F5003D0814
:10025200F0003E08F10036207008C5007108C600A3
:100262000A30F4000030F5004508F0004608F100BD
:1002720036207808F0007908F1007008C100710892
:10028200C2000A30F4000030F5004508F0004608CC
:10029200F10036207008C5007108C6000A30F4006B
:1002A2000030F5004508F0004608F10036207808D5
:1002B200F0007908F1007008BF007108C0000A3030
:1002C200F4000030F5004508F0004608F100362041
:1002D2000A30F4000030F50036207808F000790882
:1002E200F10008167008203E8400000886000D30D8
:1002F200FC00FB30FD00FD0B7C29FC0B7C2900007F
:100302000000081288163F08203E8400000886007C
:100312000D30FC00FB30FD00FD0B8D29FC0B8D29FF
:1003220000000000881208174108203E84000008DF
:1003320086000D30FC00FB30FD00FD0B9E29FC0BFE
:100342009E2900000000081388174308203E8400FD
:10035200000886000D30FC00FB30FD00FD0BAF29CC
:0C036200FC0BAF2900000000881308000D
:10036E00C03083120313A000F930A100A430A20004
:10037E00B030A3009930A4009230A5008230A600C0
:10038E00F830A7008030A8009030A900F730AA00FE
:10039E00AB01AC01AD01AE01A130AF00C030B00079
:1003AE00C830B1008630B200B301B401B501B60158
:1003BE00063083169F0007309C0086018801FF30AF
:1003CE00870083128601880100303406031DF1294F
:1003DE0000303306031DF429DA2A00303406031DDB
:1003EE00FA2901303306031DD22A00303606031DCA
:1003FE00022A00303506031D492A071C242A023022
:10040E00FB000430FC00BA30FD00FD0B0C2AFC0B87
:10041E000C2AFB0B0C2A0000071C242A80302C0609
:10042E00F0008030013A7002031D1F2A2C302B027F
:10043E000318242AAB0A0319AC0A871C442A02307B
:10044E00FB000430FC00BA30FD00FD0B2C2AFC0B27
:10045E002C2AFB0B2C2A0000871C442A8030F0002B
:10046E0080302C067002031D3E2A2B08003C031818
:10047E00442A0130AB02031CAC032B08BD002C0830
:10048E00BE00112100303606031D4F2A01303506FD
:10049E00031D962A071C712A0230FB000430FC0053
:1004AE00BA30FD00FD0B592AFC0B592AFB0B592AB9
:1004BE000000071C712A80302E06F0008030033AAF
:1004CE007002031D6C2AE8302D020318712AAD0A42
:1004DE000319AE0A871C912A0230FB000430FC007F
:1004EE00BA30FD00FD0B792AFC0B792AFB0B792A19
:1004FE000000871C912A8030F00080302E0670029A
:10050E00031D8B2A2D08003C0318912A0130AD02E1
:10051E00031CAE032D08BD002E08BE0011210030B5
:10052E003606031D9C2A02303506031D9F2AAB207A
:10053E0000303606031DA52A03303506031DD12AC9
:10054E003C30F4000030F5002B08F0002C08F100D0
:10055E003620E830F4000330F500E6207008BB00CA
:10056E007108BC000A30F4000030F5002D08F000D0
:10057E002E08F10036203B08F0073C080318013E18
:10058E00F1077008B9007108BA007008BD00710853
:10059E00BE001121DA2A00303406031DD82A02309B
:1005AE003306031DDA2A071DFD2A0B30FB00263009
:1005BE00FC005D30FD00FD0BE22AFC0BE22AFB0B7A
:1005CE00E22A00000000071DFD2A80303606F000EA
:1005DE0080307002031DF52A033035020318FB2A02
:1005EE00B50A0319B60AFD2AB501B601871D202BDF
:1005FE000B30FB002630FC005D30FD00FD0B052BA3
:10060E00FC0B052BFB0B052B00000000871D202B80
:10061E0080303406F00080307002031D182B02303B
:10062E00330203181E2BB30A0319B40A202BB3018D
:06063E00B401EB29212BA1
:02400E004A2F37
:00000001FF
